{
  "_format": "hh-sol-artifact-1",
  "contractName": "FileAuthenticityVerification",
  "sourceName": "contracts/FileAuthenticityVerification.sol",
  "abi": [
    {
      "anonymous": false,
      "inputs": [
        {
          "indexed": true,
          "internalType": "bytes32",
          "name": "dataHash",
          "type": "bytes32"
        },
        {
          "indexed": true,
          "internalType": "address",
          "name": "owner",
          "type": "address"
        }
      ],
      "name": "RecordStored",
      "type": "event"
    },
    {
      "anonymous": false,
      "inputs": [
        {
          "indexed": true,
          "internalType": "bytes32",
          "name": "dataHash",
          "type": "bytes32"
        },
        {
          "indexed": true,
          "internalType": "address",
          "name": "signer",
          "type": "address"
        }
      ],
      "name": "SignatureAdded",
      "type": "event"
    },
    {
      "inputs": [
        {
          "internalType": "bytes32",
          "name": "dataHash",
          "type": "bytes32"
        },
        {
          "internalType": "bytes",
          "name": "signature",
          "type": "bytes"
        }
      ],
      "name": "addSignature",
      "outputs": [],
      "stateMutability": "nonpayable",
      "type": "function"
    },
    {
      "inputs": [
        {
          "internalType": "bytes32",
          "name": "dataHash",
          "type": "bytes32"
        }
      ],
      "name": "getOwner",
      "outputs": [
        {
          "internalType": "address",
          "name": "",
          "type": "address"
        }
      ],
      "stateMutability": "view",
      "type": "function"
    },
    {
      "inputs": [
        {
          "internalType": "bytes32",
          "name": "dataHash",
          "type": "bytes32"
        }
      ],
      "name": "getSigners",
      "outputs": [
        {
          "internalType": "address[]",
          "name": "",
          "type": "address[]"
        }
      ],
      "stateMutability": "view",
      "type": "function"
    },
    {
      "inputs": [
        {
          "internalType": "bytes32",
          "name": "dataHash",
          "type": "bytes32"
        },
        {
          "internalType": "address",
          "name": "signer",
          "type": "address"
        }
      ],
      "name": "hasSigned",
      "outputs": [
        {
          "internalType": "bool",
          "name": "",
          "type": "bool"
        }
      ],
      "stateMutability": "view",
      "type": "function"
    },
    {
      "inputs": [
        {
          "internalType": "bytes32",
          "name": "",
          "type": "bytes32"
        }
      ],
      "name": "records",
      "outputs": [
        {
          "internalType": "address",
          "name": "",
          "type": "address"
        }
      ],
      "stateMutability": "view",
      "type": "function"
    },
    {
      "inputs": [
        {
          "internalType": "bytes32",
          "name": "",
          "type": "bytes32"
        },
        {
          "internalType": "uint256",
          "name": "",
          "type": "uint256"
        }
      ],
      "name": "signerList",
      "outputs": [
        {
          "internalType": "address",
          "name": "",
          "type": "address"
        }
      ],
      "stateMutability": "view",
      "type": "function"
    },
    {
      "inputs": [
        {
          "internalType": "bytes32",
          "name": "",
          "type": "bytes32"
        },
        {
          "internalType": "address",
          "name": "",
          "type": "address"
        }
      ],
      "name": "signers",
      "outputs": [
        {
          "internalType": "bool",
          "name": "",
          "type": "bool"
        }
      ],
      "stateMutability": "view",
      "type": "function"
    },
    {
      "inputs": [
        {
          "internalType": "bytes32",
          "name": "dataHash",
          "type": "bytes32"
        }
      ],
      "name": "storeHash",
      "outputs": [],
      "stateMutability": "nonpayable",
      "type": "function"
    }
  ],
  "bytecode": "0x608060405234801561001057600080fd5b506110fb806100206000396000f3fe608060405234801561001057600080fd5b50600436106100885760003560e01c80637fe888851161005b5780637fe8888514610139578063deb931a214610155578063e7ec6aef14610185578063eb106eee146101b557610088565b806301e647251461008d57806329832c0f146100bd5780635abc37bd146100ed57806373020c111461011d575b600080fd5b6100a760048036038101906100a29190610941565b6101e5565b6040516100b491906109af565b60405180910390f35b6100d760048036038101906100d291906109f6565b610218565b6040516100e49190610a51565b60405180910390f35b61010760048036038101906101029190610aa2565b610280565b60405161011491906109af565b60405180910390f35b61013760048036038101906101329190610c28565b6102ce565b005b610153600480360381019061014e9190610941565b6105db565b005b61016f600480360381019061016a9190610941565b610714565b60405161017c91906109af565b60405180910390f35b61019f600480360381019061019a9190610941565b610750565b6040516101ac9190610d42565b60405180910390f35b6101cf60048036038101906101ca91906109f6565b6107f1565b6040516101dc9190610a51565b60405180910390f35b60006020528060005260406000206000915054906101000a900473ffffffffffffffffffffffffffffffffffffffff1681565b60006001600084815260200190815260200160002060008373ffffffffffffffffffffffffffffffffffffffff1673ffffffffffffffffffffffffffffffffffffffff16815260200190815260200160002060009054906101000a900460ff16905092915050565b6002602052816000526040600020818154811061029c57600080fd5b906000526020600020016000915091509054906101000a900473ffffffffffffffffffffffffffffffffffffffff1681565b600073ffffffffffffffffffffffffffffffffffffffff1660008084815260200190815260200160002060009054906101000a900473ffffffffffffffffffffffffffffffffffffffff1673ffffffffffffffffffffffffffffffffffffffff160361036f576040517f08c379a000000000000000000000000000000000000000000000000000000000815260040161036690610dc1565b60405180910390fd5b6000826040516020016103829190610e59565b60405160208183030381529060405280519060200120905060006103a68284610820565b9050600073ffffffffffffffffffffffffffffffffffffffff168173ffffffffffffffffffffffffffffffffffffffff1603610417576040517f08c379a000000000000000000000000000000000000000000000000000000000815260040161040e90610ecb565b60405180910390fd5b6001600085815260200190815260200160002060008273ffffffffffffffffffffffffffffffffffffffff1673ffffffffffffffffffffffffffffffffffffffff16815260200190815260200160002060009054906101000a900460ff16156104b5576040517f08c379a00000000000000000000000000000000000000000000000000000000081526004016104ac90610f5d565b60405180910390fd5b600180600086815260200190815260200160002060008373ffffffffffffffffffffffffffffffffffffffff1673ffffffffffffffffffffffffffffffffffffffff16815260200190815260200160002060006101000a81548160ff02191690831515021790555060026000858152602001908152602001600020819080600181540180825580915050600190039060005260206000200160009091909190916101000a81548173ffffffffffffffffffffffffffffffffffffffff021916908373ffffffffffffffffffffffffffffffffffffffff1602179055508073ffffffffffffffffffffffffffffffffffffffff16847fe31aa3854c366bb4ce380f9fdd22d81d4d5c2c6a3ea036c84e15df019cd1c7b360405160405180910390a350505050565b600073ffffffffffffffffffffffffffffffffffffffff1660008083815260200190815260200160002060009054906101000a900473ffffffffffffffffffffffffffffffffffffffff1673ffffffffffffffffffffffffffffffffffffffff161461067c576040517f08c379a000000000000000000000000000000000000000000000000000000000815260040161067390610fc9565b60405180910390fd5b3360008083815260200190815260200160002060006101000a81548173ffffffffffffffffffffffffffffffffffffffff021916908373ffffffffffffffffffffffffffffffffffffffff1602179055503373ffffffffffffffffffffffffffffffffffffffff16817f9ab34480d94fab9083fb6dc4436216baa0bd47784e8c6f8813840893e97b2ac260405160405180910390a350565b600080600083815260200190815260200160002060009054906101000a900473ffffffffffffffffffffffffffffffffffffffff169050919050565b6060600260008381526020019081526020016000208054806020026020016040519081016040528092919081815260200182805480156107e557602002820191906000526020600020905b8160009054906101000a900473ffffffffffffffffffffffffffffffffffffffff1673ffffffffffffffffffffffffffffffffffffffff168152602001906001019080831161079b575b50505050509050919050565b60016020528160005260406000206020528060005260406000206000915091509054906101000a900460ff1681565b60008060008061082f8561088f565b925092509250600186828585604051600081526020016040526040516108589493929190611014565b6020604051602081039080840390855afa15801561087a573d6000803e3d6000fd5b50505060206040510351935050505092915050565b600080600060418451146108d8576040517f08c379a00000000000000000000000000000000000000000000000000000000081526004016108cf906110a5565b60405180910390fd5b6020840151925060408401519150606084015160001a90509193909250565b6000604051905090565b600080fd5b600080fd5b6000819050919050565b61091e8161090b565b811461092957600080fd5b50565b60008135905061093b81610915565b92915050565b60006020828403121561095757610956610901565b5b60006109658482850161092c565b91505092915050565b600073ffffffffffffffffffffffffffffffffffffffff82169050919050565b60006109998261096e565b9050919050565b6109a98161098e565b82525050565b60006020820190506109c460008301846109a0565b92915050565b6109d38161098e565b81146109de57600080fd5b50565b6000813590506109f0816109ca565b92915050565b60008060408385031215610a0d57610a0c610901565b5b6000610a1b8582860161092c565b9250506020610a2c858286016109e1565b9150509250929050565b60008115159050919050565b610a4b81610a36565b82525050565b6000602082019050610a666000830184610a42565b92915050565b6000819050919050565b610a7f81610a6c565b8114610a8a57600080fd5b50565b600081359050610a9c81610a76565b92915050565b60008060408385031215610ab957610ab8610901565b5b6000610ac78582860161092c565b9250506020610ad885828601610a8d565b9150509250929050565b600080fd5b600080fd5b6000601f19601f8301169050919050565b7f4e487b7100000000000000000000000000000000000000000000000000000000600052604160045260246000fd5b610b3582610aec565b810181811067ffffffffffffffff82111715610b5457610b53610afd565b5b80604052505050565b6000610b676108f7565b9050610b738282610b2c565b919050565b600067ffffffffffffffff821115610b9357610b92610afd565b5b610b9c82610aec565b9050602081019050919050565b82818337600083830152505050565b6000610bcb610bc684610b78565b610b5d565b905082815260208101848484011115610be757610be6610ae7565b5b610bf2848285610ba9565b509392505050565b600082601f830112610c0f57610c0e610ae2565b5b8135610c1f848260208601610bb8565b91505092915050565b60008060408385031215610c3f57610c3e610901565b5b6000610c4d8582860161092c565b925050602083013567ffffffffffffffff811115610c6e57610c6d610906565b5b610c7a85828601610bfa565b9150509250929050565b600081519050919050565b600082825260208201905092915050565b6000819050602082019050919050565b610cb98161098e565b82525050565b6000610ccb8383610cb0565b60208301905092915050565b6000602082019050919050565b6000610cef82610c84565b610cf98185610c8f565b9350610d0483610ca0565b8060005b83811015610d35578151610d1c8882610cbf565b9750610d2783610cd7565b925050600181019050610d08565b5085935050505092915050565b60006020820190508181036000830152610d5c8184610ce4565b905092915050565b600082825260208201905092915050565b7f4572726f723a2048617368206e6f7420796574207265636f726465642e000000600082015250565b6000610dab601d83610d64565b9150610db682610d75565b602082019050919050565b60006020820190508181036000830152610dda81610d9e565b9050919050565b600081905092915050565b7f19457468657265756d205369676e6564204d6573736167653a0a333200000000600082015250565b6000610e22601c83610de1565b9150610e2d82610dec565b601c82019050919050565b6000819050919050565b610e53610e4e8261090b565b610e38565b82525050565b6000610e6482610e15565b9150610e708284610e42565b60208201915081905092915050565b7f4572726f723a20496e76616c6964207369676e61747572652e00000000000000600082015250565b6000610eb5601983610d64565b9150610ec082610e7f565b602082019050919050565b60006020820190508181036000830152610ee481610ea8565b9050919050565b7f4572726f723a20416464726573732068617320616c7265616479207369676e6560008201527f642e000000000000000000000000000000000000000000000000000000000000602082015250565b6000610f47602283610d64565b9150610f5282610eeb565b604082019050919050565b60006020820190508181036000830152610f7681610f3a565b9050919050565b7f4572726f723a204861736820616c7265616479207265636f726465642e000000600082015250565b6000610fb3601d83610d64565b9150610fbe82610f7d565b602082019050919050565b60006020820190508181036000830152610fe281610fa6565b9050919050565b610ff28161090b565b82525050565b600060ff82169050919050565b61100e81610ff8565b82525050565b60006080820190506110296000830187610fe9565b6110366020830186611005565b6110436040830185610fe9565b6110506060830184610fe9565b95945050505050565b7f496e76616c6964207369676e6174757265206c656e6774680000000000000000600082015250565b600061108f601883610d64565b915061109a82611059565b602082019050919050565b600060208201905081810360008301526110be81611082565b905091905056fea2646970667358221220d2b47ffa2f89d64c5bd55c8522df30480b506c8d6538f6578ab9d9c32432426b64736f6c63430008180033",
  "linkReferences": {},
  "deployedLinkReferences": {}
}