{
  "_format": "hh-sol-artifact-1",
  "contractName": "FileAuthenticityVerification",
  "sourceName": "contracts/FileAuthenticityVerification.sol",
  "abi": [
    {
      "anonymous": false,
      "inputs": [
        {
          "indexed": true,
          "internalType": "bytes32",
          "name": "dataHash",
          "type": "bytes32"
        },
        {
          "indexed": true,
          "internalType": "address",
          "name": "owner",
          "type": "address"
        }
      ],
      "name": "RecordStored",
      "type": "event"
    },
    {
      "anonymous": false,
      "inputs": [
        {
          "indexed": true,
          "internalType": "bytes32",
          "name": "dataHash",
          "type": "bytes32"
        },
        {
          "indexed": true,
          "internalType": "address",
          "name": "signer",
          "type": "address"
        }
      ],
      "name": "SignatureAdded",
      "type": "event"
    },
    {
      "inputs": [
        {
          "internalType": "bytes32",
          "name": "dataHash",
          "type": "bytes32"
        },
        {
          "internalType": "bytes",
          "name": "signature",
          "type": "bytes"
        }
      ],
      "name": "addSignature",
      "outputs": [],
      "stateMutability": "nonpayable",
      "type": "function"
    },
    {
      "inputs": [
        {
          "internalType": "bytes32",
          "name": "dataHash",
          "type": "bytes32"
        }
      ],
      "name": "getOwner",
      "outputs": [
        {
          "internalType": "address",
          "name": "",
          "type": "address"
        }
      ],
      "stateMutability": "view",
      "type": "function"
    },
    {
      "inputs": [
        {
          "internalType": "bytes32",
          "name": "dataHash",
          "type": "bytes32"
        },
        {
          "internalType": "address",
          "name": "signer",
          "type": "address"
        }
      ],
      "name": "hasSigned",
      "outputs": [
        {
          "internalType": "bool",
          "name": "",
          "type": "bool"
        }
      ],
      "stateMutability": "view",
      "type": "function"
    },
    {
      "inputs": [
        {
          "internalType": "bytes32",
          "name": "",
          "type": "bytes32"
        }
      ],
      "name": "records",
      "outputs": [
        {
          "internalType": "address",
          "name": "",
          "type": "address"
        }
      ],
      "stateMutability": "view",
      "type": "function"
    },
    {
      "inputs": [
        {
          "internalType": "bytes32",
          "name": "",
          "type": "bytes32"
        },
        {
          "internalType": "address",
          "name": "",
          "type": "address"
        }
      ],
      "name": "signers",
      "outputs": [
        {
          "internalType": "bool",
          "name": "",
          "type": "bool"
        }
      ],
      "stateMutability": "view",
      "type": "function"
    },
    {
      "inputs": [
        {
          "internalType": "bytes32",
          "name": "dataHash",
          "type": "bytes32"
        }
      ],
      "name": "storeHash",
      "outputs": [],
      "stateMutability": "nonpayable",
      "type": "function"
    }
  ],
  "bytecode": "0x608060405234801561001057600080fd5b50610dbc806100206000396000f3fe608060405234801561001057600080fd5b50600436106100625760003560e01c806301e647251461006757806329832c0f1461009757806373020c11146100c75780637fe88885146100e3578063deb931a2146100ff578063eb106eee1461012f575b600080fd5b610081600480360381019061007c9190610758565b61015f565b60405161008e91906107c6565b60405180910390f35b6100b160048036038101906100ac919061080d565b610192565b6040516100be9190610868565b60405180910390f35b6100e160048036038101906100dc91906109c9565b6101fa565b005b6100fd60048036038101906100f89190610758565b610493565b005b61011960048036038101906101149190610758565b6105cc565b60405161012691906107c6565b60405180910390f35b6101496004803603810190610144919061080d565b610608565b6040516101569190610868565b60405180910390f35b60006020528060005260406000206000915054906101000a900473ffffffffffffffffffffffffffffffffffffffff1681565b60006001600084815260200190815260200160002060008373ffffffffffffffffffffffffffffffffffffffff1673ffffffffffffffffffffffffffffffffffffffff16815260200190815260200160002060009054906101000a900460ff16905092915050565b600073ffffffffffffffffffffffffffffffffffffffff1660008084815260200190815260200160002060009054906101000a900473ffffffffffffffffffffffffffffffffffffffff1673ffffffffffffffffffffffffffffffffffffffff160361029b576040517f08c379a000000000000000000000000000000000000000000000000000000000815260040161029290610a82565b60405180910390fd5b6000826040516020016102ae9190610b1a565b60405160208183030381529060405280519060200120905060006102d28284610637565b9050600073ffffffffffffffffffffffffffffffffffffffff168173ffffffffffffffffffffffffffffffffffffffff1603610343576040517f08c379a000000000000000000000000000000000000000000000000000000000815260040161033a90610b8c565b60405180910390fd5b6001600085815260200190815260200160002060008273ffffffffffffffffffffffffffffffffffffffff1673ffffffffffffffffffffffffffffffffffffffff16815260200190815260200160002060009054906101000a900460ff16156103e1576040517f08c379a00000000000000000000000000000000000000000000000000000000081526004016103d890610c1e565b60405180910390fd5b600180600086815260200190815260200160002060008373ffffffffffffffffffffffffffffffffffffffff1673ffffffffffffffffffffffffffffffffffffffff16815260200190815260200160002060006101000a81548160ff0219169083151502179055508073ffffffffffffffffffffffffffffffffffffffff16847fe31aa3854c366bb4ce380f9fdd22d81d4d5c2c6a3ea036c84e15df019cd1c7b360405160405180910390a350505050565b600073ffffffffffffffffffffffffffffffffffffffff1660008083815260200190815260200160002060009054906101000a900473ffffffffffffffffffffffffffffffffffffffff1673ffffffffffffffffffffffffffffffffffffffff1614610534576040517f08c379a000000000000000000000000000000000000000000000000000000000815260040161052b90610c8a565b60405180910390fd5b3360008083815260200190815260200160002060006101000a81548173ffffffffffffffffffffffffffffffffffffffff021916908373ffffffffffffffffffffffffffffffffffffffff1602179055503373ffffffffffffffffffffffffffffffffffffffff16817f9ab34480d94fab9083fb6dc4436216baa0bd47784e8c6f8813840893e97b2ac260405160405180910390a350565b600080600083815260200190815260200160002060009054906101000a900473ffffffffffffffffffffffffffffffffffffffff169050919050565b60016020528160005260406000206020528060005260406000206000915091509054906101000a900460ff1681565b600080600080610646856106a6565b9250925092506001868285856040516000815260200160405260405161066f9493929190610cd5565b6020604051602081039080840390855afa158015610691573d6000803e3d6000fd5b50505060206040510351935050505092915050565b600080600060418451146106ef576040517f08c379a00000000000000000000000000000000000000000000000000000000081526004016106e690610d66565b60405180910390fd5b6020840151925060408401519150606084015160001a90509193909250565b6000604051905090565b600080fd5b600080fd5b6000819050919050565b61073581610722565b811461074057600080fd5b50565b6000813590506107528161072c565b92915050565b60006020828403121561076e5761076d610718565b5b600061077c84828501610743565b91505092915050565b600073ffffffffffffffffffffffffffffffffffffffff82169050919050565b60006107b082610785565b9050919050565b6107c0816107a5565b82525050565b60006020820190506107db60008301846107b7565b92915050565b6107ea816107a5565b81146107f557600080fd5b50565b600081359050610807816107e1565b92915050565b6000806040838503121561082457610823610718565b5b600061083285828601610743565b9250506020610843858286016107f8565b9150509250929050565b60008115159050919050565b6108628161084d565b82525050565b600060208201905061087d6000830184610859565b92915050565b600080fd5b600080fd5b6000601f19601f8301169050919050565b7f4e487b7100000000000000000000000000000000000000000000000000000000600052604160045260246000fd5b6108d68261088d565b810181811067ffffffffffffffff821117156108f5576108f461089e565b5b80604052505050565b600061090861070e565b905061091482826108cd565b919050565b600067ffffffffffffffff8211156109345761093361089e565b5b61093d8261088d565b9050602081019050919050565b82818337600083830152505050565b600061096c61096784610919565b6108fe565b90508281526020810184848401111561098857610987610888565b5b61099384828561094a565b509392505050565b600082601f8301126109b0576109af610883565b5b81356109c0848260208601610959565b91505092915050565b600080604083850312156109e0576109df610718565b5b60006109ee85828601610743565b925050602083013567ffffffffffffffff811115610a0f57610a0e61071d565b5b610a1b8582860161099b565b9150509250929050565b600082825260208201905092915050565b7f4572726f723a2048617368206e6f7420796574207265636f726465642e000000600082015250565b6000610a6c601d83610a25565b9150610a7782610a36565b602082019050919050565b60006020820190508181036000830152610a9b81610a5f565b9050919050565b600081905092915050565b7f19457468657265756d205369676e6564204d6573736167653a0a333200000000600082015250565b6000610ae3601c83610aa2565b9150610aee82610aad565b601c82019050919050565b6000819050919050565b610b14610b0f82610722565b610af9565b82525050565b6000610b2582610ad6565b9150610b318284610b03565b60208201915081905092915050565b7f4572726f723a20496e76616c6964207369676e61747572652e00000000000000600082015250565b6000610b76601983610a25565b9150610b8182610b40565b602082019050919050565b60006020820190508181036000830152610ba581610b69565b9050919050565b7f4572726f723a20416464726573732068617320616c7265616479207369676e6560008201527f642e000000000000000000000000000000000000000000000000000000000000602082015250565b6000610c08602283610a25565b9150610c1382610bac565b604082019050919050565b60006020820190508181036000830152610c3781610bfb565b9050919050565b7f4572726f723a204861736820616c7265616479207265636f726465642e000000600082015250565b6000610c74601d83610a25565b9150610c7f82610c3e565b602082019050919050565b60006020820190508181036000830152610ca381610c67565b9050919050565b610cb381610722565b82525050565b600060ff82169050919050565b610ccf81610cb9565b82525050565b6000608082019050610cea6000830187610caa565b610cf76020830186610cc6565b610d046040830185610caa565b610d116060830184610caa565b95945050505050565b7f496e76616c6964207369676e6174757265206c656e6774680000000000000000600082015250565b6000610d50601883610a25565b9150610d5b82610d1a565b602082019050919050565b60006020820190508181036000830152610d7f81610d43565b905091905056fea26469706673582212209cc989878480757b3f2d78c46879126676f221e4ccfb6a65559867caa07cc8ad64736f6c63430008180033",
  "linkReferences": {},
  "deployedLinkReferences": {}
}